:020000040800F2
:100000000050002071170008C1170008C117000830
:10001000C1170008C1170008C11700080000000040
:10002000000000000000000000000000C1170008F0
:10003000C117000800000000C1170008CD1000081B
:10004000C1170008C1170008C1170008C117000830
:10005000C1170008C1170008C1170008C117000820
:10006000C1170008C1170008C1170008C117000810
:10007000C1170008C1170008C1170008C117000800
:10008000C1170008C1170008C1170008C1170008F0
:10009000C1170008C1170008C1170008C1170008E0
:1000A000C1170008C1170008C1170008C1170008D0
:1000B000C1170008C1170008C1170008C1170008C0
:1000C000C1170008C1170008C1170008C1170008B0
:1000D000C1170008C1170008C1170008C1170008A0
:1000E000C1170008C117000800000000C117000870
:1000F000C1170008C1170008C1170008C117000880
:10010000C1170008C1170008C1170008C11700086F
:10011000C1170008C1170008C1170008C11700085F
:10012000C1170008C1170008C1170008C11700084F
:1001300010B5054C237833B9044B13B10448AFF321
:1001400000800123237010BD180000200000000073
:100150000C18000808B5034B1BB103490348AFF363
:10016000008008BD000000001C0000200C180008E2
:1001700080F0004002E000BF81F0004142001FBF5C
:100180005FEA410392EA030F7FEA226C7FEA236C65
:100190006AD04FEA1262D2EB1363C1BFD21841405A
:1001A00048404140B8BF5B42192B88BF704710F0F0
:1001B000004F40F4000020F07F4018BF404211F093
:1001C000004F41F4000121F07F4118BF494292EAFB
:1001D000030F3FD0A2F1010241FA03FC10EB0C0027
:1001E000C3F1200301FA03F100F0004302D54942B4
:1001F00060EB4000B0F5000F13D3B0F1807F06D361
:1002000040084FEA310102F10102FE2A51D2B1F158
:10021000004F40EBC25008BF20F0010040EA03004D
:100220007047490040EB0000013A28BFB0F5000FCD
:10023000EDD2B0FA80FCACF1080CB2EB0C0200FA83
:100240000CF0AABF00EBC25052421843BCBFD040D2
:100250001843704792F0000F81F4000106BF80F44C
:1002600000000132013BB5E74FEA41037FEA226C0F
:1002700018BF7FEA236C21D092EA030F04D092F0DA
:10028000000F08BF0846704790EA010F1CBF00200E
:10029000704712F07F4F04D1400028BF40F000406B
:1002A000704712F100723CBF00F50000704700F08B
:1002B000004343F0FE4040F4000070477FEA2262B2
:1002C00016BF08467FEA23630146420206BF5FEA83
:1002D000412390EA010F40F4800070474FF0000383
:1002E00004E000BF10F0004348BF40425FEA000C4A
:1002F00008BF704743F0964301464FF000001CE0F2
:1003000050EA010208BF70474FF000030AE000BF47
:1003100050EA010208BF704711F0004302D5404285
:1003200061EB41015FEA010C02BF844601460020F7
:1003300043F0B64308BFA3F18053A3F50003BCFA12
:100340008CF2083AA3EBC25310DB01FA02FC6344BF
:1003500000FA02FCC2F12002BCF1004F20FA02F2C6
:1003600043EB020008BF20F00100704702F12002B9
:1003700001FA02FCC2F1200250EA4C0021FA02F21A
:1003800043EB020008BF20EADC7070474FF0FF0C1F
:100390001CEAD0521EBF1CEAD15392EA0C0F93EA1A
:1003A0000C0F6FD01A4480EA010C400218BF5FEABC
:1003B00041211ED04FF0006343EA501043EA51112F
:1003C000A0FB01310CF00040B1F5000F3EBF490029
:1003D00041EAD3715B0040EA010062F17F02FD2A2D
:1003E0001DD8B3F1004F40EBC25008BF20F0010010
:1003F000704790F0000F0CF0004C08BF49024CEA27
:10040000502040EA51207F3AC2BFD2F1FF0340EAB8
:10041000C250704740F400004FF00003013A5DDC29
:1004200012F1190FDCBF00F000407047C2F100026A
:10043000410021FA02F1C2F1200200FA02FC5FEA57
:10044000310040F1000053EA4C0308BF20EADC70A1
:10045000704792F0000F00F0004C02BF400010F413
:10046000000F013AF9D040EA0C0093F0000F01F0C0
:10047000004C02BF490011F4000F013BF9D041EAE2
:100480000C018FE70CEAD15392EA0C0F18BF93EAE4
:100490000C0F0AD030F0004C18BF31F0004CD8D10E
:1004A00080EA010000F00040704790F0000F17BF95
:1004B00090F0004F084691F0000F91F0004F14D0DB
:1004C00092EA0C0F01D142020FD193EA0C0F03D133
:1004D0004B0218BF084608D180EA010000F0004036
:1004E00040F0FE4040F40000704740F0FE4040F411
:1004F000400070474FF0FF0C1CEAD0521EBF1CEAB0
:10050000D15392EA0C0F93EA0C0F69D0A2EB0302CD
:1005100080EA010C49024FEA402037D04FF0805367
:1005200043EA111143EA10130CF000408B4238BF2C
:100530005B0042F17D024FF4000C8B4224BF5B1A3A
:1005400040EA0C00B3EB510F24BFA3EB510340EA88
:100550005C00B3EB910F24BFA3EB910340EA9C0036
:10056000B3EBD10F24BFA3EBD10340EADC001B01A6
:1005700018BF5FEA1C1CE0D1FD2A3FF650AF8B424A
:1005800040EBC25008BF20F0010070470CF0004C57
:100590004CEA50207F32C2BFD2F1FF0340EAC25082
:1005A000704740F400004FF00003013A37E792F043
:1005B000000F00F0004C02BF400010F4000F013AA1
:1005C000F9D040EA0C0093F0000F01F0004C02BF9C
:1005D000490011F4000F013BF9D041EA0C0195E705
:1005E0000CEAD15392EA0C0F08D142027FF47DAF9E
:1005F00093EA0C0F7FF470AF084676E793EA0C0F8E
:1006000004D14B023FF44CAF08466EE730F0004C8B
:1006100018BF31F0004CCAD130F000427FF45CAF1B
:1006200031F000437FF43CAF5FE700BF42000ED2E1
:10063000B2F1FE4F0BD34FF09E03B3EB126209D41D
:100640004FEA002343F0004323FA02F070474FF0D3
:100650000000704712F1610F01D1420202D14FF048
:10066000FF3070474FF00000704700BF80B500AF0B
:1006700001220721012000F0B3F901220821012005
:1006800000F0AEF901220921012000F0A9F90122B0
:100690000A21012000F0A4F901220321012000F029
:1006A0009FF901220221012000F09AF90122012183
:1006B000012000F095F901220021012000F090F9BD
:1006C00000220321012000F039FB00220221012039
:1006D00000F034FB00220121012000F02FFB00225A
:1006E0000021012000F02AFB00BF80BD80B582B050
:1006F00000AF0346FB71FB79092B00F2E98001A2F0
:1007000052F823F02D07000857070008810700085A
:10071000AB070008D5070008FF07000829080008F4
:10072000530800087D080008A708000800220721D8
:10073000012000F003FB00220821012000F0FEFA56
:1007400000220921012000F0F9FA00220A210120EB
:1007500000F0F4FABCE001220721012000F0EEFADB
:1007600000220821012000F0E9FA002209210120DD
:1007700000F0E4FA00220A21012000F0DFFAA7E0ED
:1007800000220721012000F0D9FA012208210120CE
:1007900000F0D4FA00220921012000F0CFFA002253
:1007A0000A21012000F0CAFA92E00122072101206B
:1007B00000F0C4FA01220821012000F0BFFA002253
:1007C0000921012000F0BAFA00220A21012000F0DC
:1007D000B5FA7DE000220721012000F0AFFA0022E7
:1007E0000821012000F0AAFA01220921012000F0CD
:1007F000A5FA00220A21012000F0A0FA68E00122F7
:100800000721012000F09AFA00220821012000F0BF
:1008100095FA01220921012000F090FA00220A2114
:10082000012000F08BFA53E000220721012000F0A4
:1008300085FA01220821012000F080FA0122092115
:10084000012000F07BFA00220A21012000F076FA54
:100850003EE001220721012000F070FA0122082168
:10086000012000F06BFA01220921012000F066FA54
:1008700000220A21012000F061FA29E0002207216C
:10088000012000F05BFA00220821012000F056FA56
:1008900000220921012000F051FA01220A21012041
:1008A00000F04CFA14E001220721012000F046FA82
:1008B00000220821012000F041FA00220921012034
:1008C00000F03CFA01220A21012000F037FA00BFB3
:1008D00000BF0837BD4680BD80B582B000AF03467B
:1008E000FB71FB79032B43D801A252F823F000BF20
:1008F000010900081D090008390900085509000808
:1009000001220321012000F019FA052000F034F83B
:1009100000220321012000F011FA29E00122022126
:10092000012000F00BFA052000F026F80022022139
:10093000012000F003FA1BE001220121012000F058
:10094000FDF9052000F018F800220121012000F037
:10095000F5F90DE001220021012000F0EFF905205A
:1009600000F00AF800220021012000F0E7F900BFA2
:1009700000BF0837BD4680BD80B584B000AF786049
:100980007868FFF7ABFC034613491846FFF7F4FB02
:1009900003461846FFF74AFE03461846FFF79EFC3B
:1009A00003460E491846FFF7A5FD03461846FFF714
:1009B0003DFE0346BB600023FB6003E000BFFB6815
:1009C0000133FB60FA68BB689A42F7D300BF00BFEF
:1009D0001037BD4680BD00BF0456223FFFE7B03B45
:1009E00080B483B000AF0346FB710B46BB71134666
:1009F0007B71FB79022B00F00D81022B00F39681B5
:100A0000002B03D0012B00F083808FE1BB79072BF3
:100A10003ED8A14B1B68BA799200012101FA02F27B
:100A2000D24311469C4A0B4013609B4B1B68BA791A
:100A30009200013A012101FA02F2D2431146964A8C
:100A40000B401360944B1B68BA799200023A012163
:100A500001FA02F2D24311468F4A0B4013608E4BCB
:100A60001B68BA799200033A012101FA02F2D243DB
:100A70001146894A0B401360874B1B687979BA7914
:100A8000920001FA02F21146834A0B4313604DE1D2
:100A9000824B1B68BA799200012101FA02F2D2431B
:100AA00011467E4A0B4013607C4B1B68BA7992005A
:100AB000013A012101FA02F2D2431146774A0B4072
:100AC0001360764B1B68BA799200023A012101FA51
:100AD00002F2D2431146714A0B4013606F4B1B6800
:100AE000BA799200033A012101FA02F2D243114687
:100AF0006A4A0B401360694B1B687979BA79083AE6
:100B0000920001FA02F21146644A0B4313600DE1B0
:100B1000BB79072B3ED8624B1B68BA799200012142
:100B200001FA02F2D24311465D4A0B4013605C4B5E
:100B30001B68BA799200013A012101FA02F2D2430C
:100B40001146574A0B401360554B1B68BA79920007
:100B5000023A012101FA02F2D2431146504A0B40F7
:100B600013604F4B1B68BA799200033A012101FAD6
:100B700002F2D24311464A4A0B401360484B1B68AD
:100B80007979BA79920001FA02F21146444A0B438C
:100B90001360CBE0434B1B68BA799200012101FA44
:100BA00002F2D24311463F4A0B4013603D4B1B6893
:100BB000BA799200013A012101FA02F2D2431146B8
:100BC000384A0B401360374B1B68BA799200023ADF
:100BD000012101FA02F2D2431146324A0B4013605E
:100BE000304B1B68BA799200033A012101FA02F2F4
:100BF000D24311462B4A0B4013602A4B1B6879796C
:100C0000BA79083A920001FA02F21146254A0B43DA
:100C100013608BE0BB79072B48D8234B1B68BA794C
:100C20009200012101FA02F2D24311461E4A0B4002
:100C300013601D4B1B68BA799200013A012101FA39
:100C400002F2D2431146184A0B401360164B1B6840
:100C5000BA799200023A012101FA02F2D243114616
:100C6000114A0B401360104B1B68BA799200033A8B
:100C7000012101FA02F2D24311460B4A0B401360E4
:100C8000094B1B687979BA79920001FA02F2114690
:100C9000054A0B43136048E0000801400408014086
:100CA000000C0140040C014000100140224B1B6865
:100CB000BA799200012101FA02F2D24311461E4A8A
:100CC0000B4013601C4B1B68BA799200013A01215A
:100CD00001FA02F2D2431146174A0B401360164B39
:100CE0001B68BA799200023A012101FA02F2D2435A
:100CF0001146114A0B4013600F4B1B68BA799200E2
:100D0000033A012101FA02F2D24311460A4A0B408A
:100D10001360094B1B687979BA79083A920001FA95
:100D200002F21146044A0B43136000BF00BF0C37A8
:100D3000BD4680BC704700BF0410014080B483B042
:100D400000AF0346FB710B46BB7113467B71FB7909
:100D5000022B40D0022B60DC002B02D0012B1DD0D7
:100D60005BE07B79002B0CD0012B51D12D4B1B6804
:100D7000BA79012101FA02F211462A4A0B431360A3
:100D80000BE0284B1B68BA79012101FA02F2D24329
:100D90001146244A0B40136000BF39E07B79002BD9
:100DA0000CD0012B36D1204B1B68BA79012101FAF6
:100DB00002F211461C4A0B4313600BE01A4B1B68EE
:100DC000BA79012101FA02F2D2431146164A0B40C8
:100DD000136000BF1EE07B79002B0CD0012B1BD1D0
:100DE000124B1B68BA79012101FA02F211460F4A2F
:100DF0000B4313600BE00D4B1B68BA79012101FA1C
:100E000002F2D2431146094A0B40136000BF03E0CF
:100E100000BF02E000BF00E000BF00BF0C37BD46CE
:100E200080BC70470C0801400C0C01400C100140C4
:100E300080B485B000AF03460A46FB711346BB7110
:100E40000023FB73FB79022B1AD0022B22DC002B30
:100E500002D0012B0AD01DE0114B1A68BB7922FA8F
:100E600003F3DBB203F00103FB7313E00D4B1A68CD
:100E7000BB7922FA03F3DBB203F00103FB7309E051
:100E8000074B1A68BB7922FA03F3DBB203F00103C4
:100E9000FB7300BFFB7B18461437BD4680BC704710
:100EA00008080140080C014080B400AF0D4B1B68DE
:100EB0000C4A43F0010313600A4B0A4A5B68536013
:100EC00000BF084B1B6803F00203002BF9D0054B51
:100ED0001B68044A23F40023136000BFBD4680BC96
:100EE000704700BF0010024080B485B000AF0346D9
:100EF000FB710B46BB7113467B710123FB737B793E
:100F0000032B63D0032B7EDC012B02D0022B2DD0D0
:100F100079E0FB79032B1CD0032B25DC012B02D0BD
:100F2000022B0BD020E03B4B5B69BA79012101FA1F
:100F300002F21146374A0B43536116E0354BDB6929
:100F4000BA79012101FA02F21146324A0B43D36108
:100F50000BE0304B9B69BA79012101FA02F211468C
:100F60002C4A0B43936100E000BF4CE0FB79032B5C
:100F70001ED0032B28DC012B02D0022B0CD023E047
:100F8000244B5B69BA79012101FA02F2D24311467E
:100F9000204A0B40536118E01E4BDB69BA790121EE
:100FA00001FA02F2D24311461A4A0B40D3610CE017
:100FB000184B9B69BA79012101FA02F2D24311461A
:100FC000144A0B40936100E000BF1CE0FB79022B48
:100FD00002D0032B0BD015E00E4B1B69BA7901210F
:100FE00001FA02F211460B4A0B4313610AE0094B66
:100FF000DB68BA79012101FA02F21146054A0B4376
:10100000D36000BF00BFFB7B18461437BD4680BCD1
:10101000704700BF0010024080B400AF084B1B684F
:10102000074A43F004031360054B1B68044A43F06E
:101030000203136000231846BD4680BC704700BF02
:1010400010E000E080B400AF054B1B68044A43F099
:101050000103136000231846BD4680BC704700BFE3
:1010600010E000E080B400AF054B1B68044A23F099
:101070000103136000231846BD4680BC704700BFC3
:1010800010E000E080B483B000AF7860044A7B6871
:101090001360002318460C37BD4680BC704700BF64
:1010A0003400002080B483B000AF78603960064916
:1010B0007B683A6802FB03F30B60002318460C3789
:1010C000BD4680BC704700BF14E000E080B400AFB4
:1010D000034B01221A7000BFBD4680BC704700BFA1
:1010E0003800002080B582B000AF0346FB71FB7969
:1010F000782B00F08880FB79303B232B00F2858031
:1011000001A252F823F000BFAB110008B311000890
:10111000BB110008C3110008CB110008D31100084F
:10112000DB110008E3110008EB110008F3110008BF
:101130000B1200080B120008FB1100080B1200082C
:10114000011200080B1200080B1200080B12000815
:101150000B120008A51100080B12000899110008D5
:101160000B1200080B1200080B1200080B120008EB
:101170000B1200080B1200080B1200080B120008DB
:101180000B1200080B1200080B1200080B120008CB
:101190000B1200089F11000800F066F836E000F01E
:1011A00055F833E000F036F830E0002000F036F972
:1011B0002CE0012000F032F928E0022000F02EF9A6
:1011C00024E0032000F02AF920E0042000F026F9B2
:1011D0001CE0052000F022F918E0062000F01EF9BE
:1011E00014E0072000F01AF910E0082000F016F9CA
:1011F0000CE0092000F012F908E000F04BF805E0DF
:1012000000F066F802E000BF00E000BF0837BD460E
:1012100080BD00BF80B500AF0A4B0022DA70094BD9
:10122000DA78084B9A70074B9A78064B5A70054B40
:101230005A78044B1A70044B00221A7000F0AAF876
:1012400000BF80BD3C0000203900002080B500AF09
:10125000FFF7F8FE034B00221A7000F09BF800BF66
:1012600080BD00BF3900002080B500AF084B1B785F
:10127000002B03D0064B00221A7004E0FFF7F2FEA9
:10128000034B01221A7000F085F800BF80BD00BF3B
:101290003900002080B500AF0B4B1B78002B10D01D
:1012A0000A4B1B78002B03D1084B03221A7005E070
:1012B000064B1B78013BDAB2044B1A7000F06AF857
:1012C00000E000BF80BD00BF390000203A000020D0
:1012D00080B500AF0B4B1B78002B10D00A4B1B784E
:1012E000032B03D1084B00221A7005E0064B1B7834
:1012F0000133DAB2044B1A7000F04CF800E000BF82
:1013000080BD00BF390000203A00002080B500AF4A
:1013100001220B210020FFF763FB01220C2100209A
:10132000FFF75EFB01220D210020FFF759FB012290
:101330000E210020FFF754FB00BF80BD90B583B0A5
:1013400000AF0446084611461A462346FB71034681
:10135000BB710B467B7113463B71FB791A460B211F
:101360000020FFF7EBFCBB791A460C210020FFF7A9
:10137000E5FC7B791A460D210020FFF7DFFC3B7965
:101380001A460E210020FFF7D9FC00BF0C37BD46DE
:1013900090BD000080B582B000AF0023FB71002338
:1013A000BB7100237B7100233B711A4B1B78002B10
:1013B00006D1194B1B78002B02D00123FB711FE0D3
:1013C000144B1B78012B06D1134B1B78002B02D03A
:1013D0000123BB7114E00F4B1B78022B06D10E4B7F
:1013E0001B78002B02D001237B7109E0094B1B788D
:1013F000032B05D1084B1B78002B01D001233B7137
:101400003B797A79B979F879FFF798FF00BF083707
:10141000BD4680BD3A0000203900002080B483B072
:1014200000AF0346FB71114B1B78002B18D0104BFB
:101430001B78002B03D00E4B1B78022B09D1FB79B4
:10144000052B06D90A4B1B781A460A4B00219954E2
:1014500007E0074B1B781946064AFB79535400E016
:1014600000BF0C37BD4680BC704700BF390000206C
:101470003A0000203C00002080B400AF374B9B783E
:10148000052B51D1354BDB78092B4DD1334B1B78D4
:10149000052B13D1314B5B78092B0FD12F4B002239
:1014A000DA702E4BDA782D4B9A702C4B9A782B4BA6
:1014B0005A702A4B5A78294B1A704AE0274B1B78EE
:1014C000052B0DD1254B5B780133DAB2234B5A70D3
:1014D000224B0022DA70214BDA78204B9A7038E0E8
:1014E0001E4B5B78092B11D11C4B1B780133DAB2F0
:1014F0001A4B1A70194B0022DA70184BDA78174B16
:101500005A70164B5A78154B9A7022E0134B5B7841
:101510000133DAB2114B5A70104B0022DA700F4BC4
:10152000DA780E4B9A7014E00C4BDB78092B09D15A
:101530000A4B9B780133DAB2084B9A70074B0022B2
:10154000DA7006E0054BDB780133DAB2034BDA7070
:10155000FFE700BFBD4680BC704700BF3C000020D5
:1015600080B500AF082204210020FFF739FA0822D5
:1015700003210020FFF734FA082202210020FFF7A0
:101580002FFA082201210020FFF72AFA012209215F
:101590000020FFF725FA012208210020FFF720FA9A
:1015A000012207210020FFF71BFA0122062100205B
:1015B000FFF716FA012209210020FFF7BFFB0122E5
:1015C00008210020FFF7BAFB012207210020FFF7C6
:1015D000B5FB012206210020FFF7B0FB00BF80BD54
:1015E00080B584B000AF0023FB737823BB73002366
:1015F0007B730023BB6049E0294ABB6813441B7816
:10160000012219460020FFF799FB00237B602BE0A5
:10161000244A7B6813441B7819460020FFF708FC16
:101620000346FB730220FFF7A7F9FB7B012B18D1C0
:1016300011E01C4A7B6813441B7819460020FFF711
:10164000F7FB0346FB73184ABB689B001A447B6890
:1016500013441B78BB73FB7B012BEAD001237B7304
:1016600005E07B6801337B607B68032BD0DD0C4A8F
:10167000BB6813441B78002219460020FFF75EFB6D
:101680007B7B002B06D1BB680133BB60BB68032B9F
:10169000B2DD00E000BFBB7B18461037BD4680BD01
:1016A00010000020140000200000002080B582B04F
:1016B00000AFFFF7F9FB012202210320FFF714FC22
:1016C000012203210320FFF70FFCFFF7A5FC1A48B6
:1016D000FFF7D8FC19490120FFF7E4FCFFF740FFB2
:1016E000FEF7C4FFFFF712FE154B1B78012B04D148
:1016F000FFF7C2FE124B00221A707823BB71FFF76E
:101700006FFF0346BB71BB791846FFF7EBFC002364
:10171000FB710CE0FB790B4AD35C1846FEF7E6FF41
:10172000FB791846FFF7D8F8FB790133FB71FB7999
:10173000032BEFD9D8E700BF4917000800127A0041
:10174000380000203C00002080B582B000AF034686
:10175000FB7101220B210020FFF742F9FB791A46A9
:101760000B210020FFF7EAFA00BF0837BD4680BD15
:101770000D488546AFF300800C480D490D4A002303
:1017800002E0D458C4500433C4188C42F9D30A4A36
:101790000A4C002301E013600432A242FBD300F0A4
:1017A00011F8FFF783FFFEE7005000200000002043
:1017B000180000202C18000818000020400000200D
:1017C000FEE7000070B500260C4D0D4C641BA41004
:1017D000A64209D100F01AF800260A4D0A4C641BF3
:1017E000A410A64205D170BD55F8043B98470136B8
:1017F000EEE755F8043B98470136F2E72418000855
:10180000241800082418000828180008F8B500BF9C
:10181000F8BC08BC9E467047F8B500BFF8BC08BCD1
:041820009E46704729
:041824005501000862
:041828003101000882
:10182C003738395334353645313233433C303E2A20
:08183C0009080706040302017C
:040000050800177167
:00000001FF
